{
  "contractName": "ConstructionProject",
  "abi": [
    {
      "inputs": [
        {
          "internalType": "address",
          "name": "_contractor",
          "type": "address"
        },
        {
          "internalType": "address",
          "name": "_auditor",
          "type": "address"
        },
        {
          "internalType": "uint256",
          "name": "_totalBudget",
          "type": "uint256"
        }
      ],
      "stateMutability": "nonpayable",
      "type": "constructor"
    },
    {
      "anonymous": false,
      "inputs": [
        {
          "indexed": false,
          "internalType": "uint256",
          "name": "milestoneId",
          "type": "uint256"
        },
        {
          "indexed": false,
          "internalType": "uint256",
          "name": "amount",
          "type": "uint256"
        }
      ],
      "name": "FundsReleased",
      "type": "event"
    },
    {
      "anonymous": false,
      "inputs": [
        {
          "indexed": false,
          "internalType": "uint256",
          "name": "milestoneId",
          "type": "uint256"
        }
      ],
      "name": "MilestoneVerified",
      "type": "event"
    },
    {
      "inputs": [],
      "name": "auditor",
      "outputs": [
        {
          "internalType": "address",
          "name": "",
          "type": "address"
        }
      ],
      "stateMutability": "view",
      "type": "function",
      "constant": true
    },
    {
      "inputs": [],
      "name": "contractor",
      "outputs": [
        {
          "internalType": "address",
          "name": "",
          "type": "address"
        }
      ],
      "stateMutability": "view",
      "type": "function",
      "constant": true
    },
    {
      "inputs": [],
      "name": "government",
      "outputs": [
        {
          "internalType": "address",
          "name": "",
          "type": "address"
        }
      ],
      "stateMutability": "view",
      "type": "function",
      "constant": true
    },
    {
      "inputs": [
        {
          "internalType": "uint256",
          "name": "",
          "type": "uint256"
        }
      ],
      "name": "milestones",
      "outputs": [
        {
          "internalType": "uint256",
          "name": "amount",
          "type": "uint256"
        },
        {
          "internalType": "bool",
          "name": "verified",
          "type": "bool"
        },
        {
          "internalType": "bool",
          "name": "fundsReleased",
          "type": "bool"
        }
      ],
      "stateMutability": "view",
      "type": "function",
      "constant": true
    },
    {
      "inputs": [],
      "name": "receivedFunds",
      "outputs": [
        {
          "internalType": "uint256",
          "name": "",
          "type": "uint256"
        }
      ],
      "stateMutability": "view",
      "type": "function",
      "constant": true
    },
    {
      "inputs": [],
      "name": "releasedFunds",
      "outputs": [
        {
          "internalType": "uint256",
          "name": "",
          "type": "uint256"
        }
      ],
      "stateMutability": "view",
      "type": "function",
      "constant": true
    },
    {
      "inputs": [],
      "name": "totalBudget",
      "outputs": [
        {
          "internalType": "uint256",
          "name": "",
          "type": "uint256"
        }
      ],
      "stateMutability": "view",
      "type": "function",
      "constant": true
    },
    {
      "stateMutability": "payable",
      "type": "receive",
      "payable": true
    },
    {
      "inputs": [
        {
          "internalType": "uint256",
          "name": "milestoneId",
          "type": "uint256"
        },
        {
          "internalType": "uint256",
          "name": "amount",
          "type": "uint256"
        }
      ],
      "name": "addMilestone",
      "outputs": [],
      "stateMutability": "nonpayable",
      "type": "function"
    },
    {
      "inputs": [
        {
          "internalType": "uint256",
          "name": "milestoneId",
          "type": "uint256"
        }
      ],
      "name": "verifyMilestone",
      "outputs": [],
      "stateMutability": "nonpayable",
      "type": "function"
    },
    {
      "inputs": [
        {
          "internalType": "uint256",
          "name": "milestoneId",
          "type": "uint256"
        }
      ],
      "name": "releaseFunds",
      "outputs": [],
      "stateMutability": "nonpayable",
      "type": "function"
    },
    {
      "inputs": [],
      "name": "getProjectStatus",
      "outputs": [
        {
          "internalType": "uint256",
          "name": "",
          "type": "uint256"
        },
        {
          "internalType": "uint256",
          "name": "",
          "type": "uint256"
        },
        {
          "internalType": "uint256",
          "name": "",
          "type": "uint256"
        }
      ],
      "stateMutability": "view",
      "type": "function",
      "constant": true
    }
  ],
  "bytecode": "0x6080604052600060045560006005553480156200001b57600080fd5b506040516200105d3803806200105d833981810160405281019062000041919062000141565b336000806101000a81548173ffffffffffffffffffffffffffffffffffffffff021916908373ffffffffffffffffffffffffffffffffffffffff16021790555082600160006101000a81548173ffffffffffffffffffffffffffffffffffffffff021916908373ffffffffffffffffffffffffffffffffffffffff16021790555081600260006101000a81548173ffffffffffffffffffffffffffffffffffffffff021916908373ffffffffffffffffffffffffffffffffffffffff1602179055508060038190555050505062000214565b6000815190506200012481620001e0565b92915050565b6000815190506200013b81620001fa565b92915050565b6000806000606084860312156200015d576200015c620001db565b5b60006200016d8682870162000113565b9350506020620001808682870162000113565b925050604062000193868287016200012a565b9150509250925092565b6000620001aa82620001b1565b9050919050565b600073ffffffffffffffffffffffffffffffffffffffff82169050919050565b6000819050919050565b600080fd5b620001eb816200019d565b8114620001f757600080fd5b50565b6200020581620001d1565b81146200021157600080fd5b50565b610e3980620002246000396000f3fe6080604052600436106100a05760003560e01c8063ab96cc4c11610064578063ab96cc4c1461017d578063b48c0d26146101a8578063c78da39a146101d3578063e7aa3afc146101fe578063e89e4ed61461022b578063fbfd20451461026a576100a7565b80632672f526146100ac5780633ec045a6146100d75780634d68282f146101025780635601477b1461012b578063a85f312814610154576100a7565b366100a757005b600080fd5b3480156100b857600080fd5b506100c1610295565b6040516100ce9190610a06565b60405180910390f35b3480156100e357600080fd5b506100ec6102b9565b6040516100f99190610a06565b60405180910390f35b34801561010e57600080fd5b506101296004803603810190610124919061089a565b6102df565b005b34801561013757600080fd5b50610152600480360381019061014d91906108c7565b610592565b005b34801561016057600080fd5b5061017b6004803603810190610176919061089a565b6106f7565b005b34801561018957600080fd5b506101926107f0565b60405161019f9190610ae1565b60405180910390f35b3480156101b457600080fd5b506101bd6107f6565b6040516101ca9190610ae1565b60405180910390f35b3480156101df57600080fd5b506101e86107fc565b6040516101f59190610ae1565b60405180910390f35b34801561020a57600080fd5b50610213610802565b60405161022293929190610b5c565b60405180910390f35b34801561023757600080fd5b50610252600480360381019061024d919061089a565b61081b565b60405161026193929190610afc565b60405180910390f35b34801561027657600080fd5b5061027f61085f565b60405161028c9190610a06565b60405180910390f35b60008054906101000a900473ffffffffffffffffffffffffffffffffffffffff1681565b600260009054906101000a900473ffffffffffffffffffffffffffffffffffffffff1681565b60008054906101000a900473ffffffffffffffffffffffffffffffffffffffff1673ffffffffffffffffffffffffffffffffffffffff163373ffffffffffffffffffffffffffffffffffffffff161461036d576040517f08c379a000000000000000000000000000000000000000000000000000000000815260040161036490610a61565b60405180910390fd5b6006600082815260200190815260200160002060010160009054906101000a900460ff166103d0576040517f08c379a00000000000000000000000000000000000000000000000000000000081526004016103c790610aa1565b60405180910390fd5b6006600082815260200190815260200160002060010160019054906101000a900460ff1615610434576040517f08c379a000000000000000000000000000000000000000000000000000000000815260040161042b90610ac1565b60405180910390fd5b600160009054906101000a900473ffffffffffffffffffffffffffffffffffffffff1673ffffffffffffffffffffffffffffffffffffffff166108fc60066000848152602001908152602001600020600001549081150290604051600060405180830381858888f193505050501580156104b2573d6000803e3d6000fd5b506006600082815260200190815260200160002060000154600460008282546104db9190610ba4565b9250508190555060066000828152602001908152602001600020600001546005600082825461050a9190610ba4565b9250508190555060016006600083815260200190815260200160002060010160016101000a81548160ff0219169083151502179055507f80230996023d69b50793fa73f1919127c9d8e741d3989743c479169f22e7a288816006600084815260200190815260200160002060000154604051610587929190610b33565b60405180910390a150565b60008054906101000a900473ffffffffffffffffffffffffffffffffffffffff1673ffffffffffffffffffffffffffffffffffffffff163373ffffffffffffffffffffffffffffffffffffffff1614610620576040517f08c379a000000000000000000000000000000000000000000000000000000000815260040161061790610a81565b60405180910390fd5b6004546003546106309190610bfa565b811115610672576040517f08c379a000000000000000000000000000000000000000000000000000000000815260040161066990610a21565b60405180910390fd5b604051806060016040528082815260200160001515815260200160001515815250600660008481526020019081526020016000206000820151816000015560208201518160010160006101000a81548160ff02191690831515021790555060408201518160010160016101000a81548160ff0219169083151502179055509050505050565b600260009054906101000a900473ffffffffffffffffffffffffffffffffffffffff1673ffffffffffffffffffffffffffffffffffffffff163373ffffffffffffffffffffffffffffffffffffffff1614610787576040517f08c379a000000000000000000000000000000000000000000000000000000000815260040161077e90610a41565b60405180910390fd5b60016006600083815260200190815260200160002060010160006101000a81548160ff0219169083151502179055507f7600d28d80d9a580b5c13e66bbeb88e608fa668e23c30d1b34d6ed950cd9186f816040516107e59190610ae1565b60405180910390a150565b60055481565b60045481565b60035481565b6000806000600354600454600554925092509250909192565b60066020528060005260406000206000915090508060000154908060010160009054906101000a900460ff16908060010160019054906101000a900460ff16905083565b600160009054906101000a900473ffffffffffffffffffffffffffffffffffffffff1681565b60008135905061089481610dec565b92915050565b6000602082840312156108b0576108af610ca5565b5b60006108be84828501610885565b91505092915050565b600080604083850312156108de576108dd610ca5565b5b60006108ec85828601610885565b92505060206108fd85828601610885565b9150509250929050565b61091081610c2e565b82525050565b61091f81610c40565b82525050565b6000610932601a83610b93565b915061093d82610caa565b602082019050919050565b6000610955601783610b93565b915061096082610cd3565b602082019050919050565b6000610978602183610b93565b915061098382610cfc565b604082019050919050565b600061099b602283610b93565b91506109a682610d4b565b604082019050919050565b60006109be601683610b93565b91506109c982610d9a565b602082019050919050565b60006109e1601683610b93565b91506109ec82610dc3565b602082019050919050565b610a0081610c6c565b82525050565b6000602082019050610a1b6000830184610907565b92915050565b60006020820190508181036000830152610a3a81610925565b9050919050565b60006020820190508181036000830152610a5a81610948565b9050919050565b60006020820190508181036000830152610a7a8161096b565b9050919050565b60006020820190508181036000830152610a9a8161098e565b9050919050565b60006020820190508181036000830152610aba816109b1565b9050919050565b60006020820190508181036000830152610ada816109d4565b9050919050565b6000602082019050610af660008301846109f7565b92915050565b6000606082019050610b1160008301866109f7565b610b1e6020830185610916565b610b2b6040830184610916565b949350505050565b6000604082019050610b4860008301856109f7565b610b5560208301846109f7565b9392505050565b6000606082019050610b7160008301866109f7565b610b7e60208301856109f7565b610b8b60408301846109f7565b949350505050565b600082825260208201905092915050565b6000610baf82610c6c565b9150610bba83610c6c565b9250827fffffffffffffffffffffffffffffffffffffffffffffffffffffffffffffffff03821115610bef57610bee610c76565b5b828201905092915050565b6000610c0582610c6c565b9150610c1083610c6c565b925082821015610c2357610c22610c76565b5b828203905092915050565b6000610c3982610c4c565b9050919050565b60008115159050919050565b600073ffffffffffffffffffffffffffffffffffffffff82169050919050565b6000819050919050565b7f4e487b7100000000000000000000000000000000000000000000000000000000600052601160045260246000fd5b600080fd5b7f4e6f7420656e6f7567682066756e647320617661696c61626c65000000000000600082015250565b7f4f6e6c792061756469746f722063616e20766572696679000000000000000000600082015250565b7f4f6e6c7920676f7665726e6d656e742063616e2072656c656173652066756e6460008201527f7300000000000000000000000000000000000000000000000000000000000000602082015250565b7f4f6e6c7920676f7665726e6d656e742063616e20616464206d696c6573746f6e60008201527f6573000000000000000000000000000000000000000000000000000000000000602082015250565b7f4d696c6573746f6e65206e6f7420766572696669656400000000000000000000600082015250565b7f46756e647320616c72656164792072656c656173656400000000000000000000600082015250565b610df581610c6c565b8114610e0057600080fd5b5056fea26469706673582212209d5ee761d0f87f646035690d25efd07d282d57d552607e60e07bd6f5e4c94ff064736f6c63430008060033",
  "immutableReferences": {},
  "source": "// SPDX-License-Identifier: MIT\r\npragma solidity ^0.8.6;\r\n\r\ncontract ConstructionProject {\r\n    address public government;\r\n    address public contractor;\r\n    address public auditor;\r\n    uint public totalBudget;\r\n    uint public releasedFunds = 0;\r\n    uint public receivedFunds = 0;  // Track total funds received by contractor\r\n\r\n    struct Milestone {\r\n        uint amount;\r\n        bool verified;\r\n        bool fundsReleased;\r\n    }\r\n\r\n    mapping(uint => Milestone) public milestones;\r\n    event MilestoneVerified(uint milestoneId);\r\n    event FundsReleased(uint milestoneId, uint amount);\r\n\r\n    constructor(address _contractor, address _auditor, uint _totalBudget) {\r\n        government = msg.sender;\r\n        contractor = _contractor;\r\n        auditor = _auditor;\r\n        totalBudget = _totalBudget;\r\n    }\r\n\r\n    function addMilestone(uint milestoneId, uint amount) public {\r\n        require(msg.sender == government, \"Only government can add milestones\");\r\n        require(amount <= totalBudget - releasedFunds, \"Not enough funds available\");\r\n        milestones[milestoneId] = Milestone(amount, false, false);\r\n    }\r\n\r\n    function verifyMilestone(uint milestoneId) public {\r\n        require(msg.sender == auditor, \"Only auditor can verify\");\r\n        milestones[milestoneId].verified = true;\r\n        emit MilestoneVerified(milestoneId);\r\n    }\r\n\r\n    function releaseFunds(uint milestoneId) public {\r\n    require(msg.sender == government, \"Only government can release funds\");\r\n    require(milestones[milestoneId].verified, \"Milestone not verified\");\r\n    require(!milestones[milestoneId].fundsReleased, \"Funds already released\");\r\n\r\n    payable(contractor).transfer(milestones[milestoneId].amount);\r\n    releasedFunds += milestones[milestoneId].amount;\r\n    receivedFunds += milestones[milestoneId].amount;  // Ensure funds received is updated\r\n    milestones[milestoneId].fundsReleased = true;\r\n    \r\n    emit FundsReleased(milestoneId, milestones[milestoneId].amount);\r\n}\r\n\r\n\r\n\r\n    function getProjectStatus() public view returns (uint, uint, uint) {\r\n        return (totalBudget, releasedFunds, receivedFunds);\r\n    }\r\n\r\n    receive() external payable {}\r\n}\r\n",
  "sourcePath": "E:\\UIU CSE\\Cse 243\\Fall 243 CSE 4531 (D) Computer Security (243)\\Paper\\blockchain-construction-project\\web\\contracts\\ConstructionProject.sol",
  "compiler": {
    "name": "solc",
    "version": "0.8.6+commit.11564f7e.Emscripten.clang"
  },
  "schemaVersion": "3.4.16",
  "updatedAt": "2025-01-30T08:40:08.717Z",
  "networkType": "ethereum",
  "devdoc": {
    "kind": "dev",
    "methods": {},
    "version": 1
  },
  "userdoc": {
    "kind": "user",
    "methods": {},
    "version": 1
  }
}